:1000000020060020D9000000D5000000D500000027
:1000100000000000000000000000000000000000E0
:10002000000000000000000000000000D5000000FB
:100030000000000000000000D5000000D500000016
:10004000D5000000D5000000D5000000D50000005C
:10005000D5000000D5000000D5000000D50000004C
:10006000D5000000D5000000D5000000D50000003C
:10007000D5000000D5000000D5000000D50000002C
:10008000D5000000D5000000D500000010B5064CDA
:100090002378002B07D1054B002B02D0044800E049
:1000A00000BF0123237010BD0000002000000000ED
:1000B000E4010000044B10B5002B03D003490448B1
:1000C00000E000BF10BDC04600000000040000209A
:1000D000E4010000FEE700001349144810B5814216
:1000E0000AD0134BC41E0022A34203D303331A1AAF
:1000F000920892000F4B98470F48104BC11E0022E8
:10010000994203D803331A1A9208920000210C4B2B
:100110009847FF220B4B93430B4A93600B4B984736
:100120000B4B9847FEE7C046E401000000000020AA
:1001300000000020A1010000000000201C000020A1
:10014000B30100000000000000ED00E059010000D4
:1001500055010000FEE7000070B500260C4D0D4C67
:10016000641BA410A64209D1002600F02BF80A4D0A
:100170000A4C641BA410A64205D170BDB300EB5815
:1001800098470136EEE7B300EB5898470136F2E79F
:10019000D0010000D0010000D0010000D401000017
:1001A000002310B59A4200D110BDCC5CC454013379
:1001B000F8E703008218934200D1704719700133A9
:1001C000F9E70000F8B5C046F8BC08BC9E46704789
:1001D000B5000000F8B5C046F8BC08BC9E467047A4
:0401E0008D0000008E
:00000001FF
